:020000040800F2
:100000000080012089020008D9020008D9020008F6
:10001000D9020008D9020008D90200080000000037
:10002000000000000000000000000000D9020008ED
:10003000D902000800000000D9020008D902000817
:1000400000000000D9020008D9020008D902000807
:10005000D9020008D9020008D9020008D902000814
:10006000D9020008D9020008D9020008D902000804
:10007000D9020008D9020008D9020008D9020008F4
:10008000D9020008D9020008D902000800000000C7
:10009000000000000000000000000000D90200087D
:1000A000D9020008D9020008D9020008D9020008C4
:1000B000D9020008D9020008D9020008D9020008B4
:1000C000D9020008D9020008D9020008D9020008A4
:1000D000D9020008D9020008D90200080000000077
:1000E000D9020008D9020008D90200080000000067
:1000F000000000000000000000000000D90200081D
:1001000000000000D9020008D9020008D902000846
:1001100000000000000000000000000000000000DF
:10012000D9020008D9020008D9020008D902000843
:10013000D9020008000000000000000000000000DC
:10014000000000000000000000000000D9020008CC
:10015000D9020008D9020008D9020008D902000813
:10016000D9020008D90200080000000000000000C9
:10017000000000000000000000000000000000007F
:10018000000000000000000000000000000000006F
:04019000D902000888
:1001940010B5054C237833B9044B13B10448AFF3BD
:1001A40000800123237010BD000000200000000027
:1001B4002403000808B5034B1BB103490348AFF3FC
:1001C400008008BD00000000040000202403000893
:1001D40080B483B000AF274B1B6B264A43F0010366
:1001E4001363254B1B68244A23F010031360224B2E
:1001F4001B68214A43F0200313601F4B1B6A1E4AED
:1002040023F4006313621C4B1B6A1B4A43F4806390
:100214001362194B1B6A184A43F400731362164B9A
:100224001B6A154A43F480731362124B1B6C114A08
:1002340043F400331364114B8B229A600F4B082252
:10024400DA600E4B4FF40052DA6000BF0B4B1B68B0
:1002540003F08003002BF9D0084B41225A6000239D
:100264007B6002E07B6801337B607B68044A9342D5
:10027400F8DDEAE700380240000002400044004094
:100284003F420F000D488546AFF300800C480D49EE
:100294000D4A002302E0D458C4500433C4188C42DD
:1002A400F9D30A4A0A4C002301E013600432A24243
:1002B400FBD300F011F8FFF78BFFFEE7008001206D
:1002C400000000200000002044030008000000207B
:1002D4001C000020FEE7000070B50D4D0D4C641BA2
:1002E400A4100026A64209D10B4D0C4C00F018F8BE
:1002F400641BA4100026A64205D170BD55F8043B2A
:1003040098470136EEE755F8043B98470136F2E783
:100314003C0300083C0300083C03000840030008B9
:10032400F8B500BFF8BC08BC9E467047F8B500BFDE
:08033400F8BC08BC9E467047AE
:04033C00B9010008FB
:04034000950100081B
:040000050800028964
:00000001FF
