:020000040800F2
:1000000000800120C102000811030008110300084C
:10001000110300081103000811030008000000008C
:1000200000000000000000000000000011030008B4
:10003000110300080000000011030008110300086C
:10004000000000001103000811030008110300085C
:100050001103000811030008110300081103000830
:100060001103000811030008110300081103000820
:100070001103000811030008110300081103000810
:10008000110300081103000811030008000000001C
:100090000000000000000000000000001103000844
:1000A00011030008110300081103000811030008E0
:1000B00011030008110300081103000811030008D0
:1000C00011030008110300081103000811030008C0
:1000D00011030008110300081103000800000000CC
:1000E00011030008110300081103000800000000BC
:1000F00000000000000000000000000011030008E4
:10010000000000001103000811030008110300089B
:1001100000000000000000000000000000000000DF
:10012000110300081103000811030008110300085F
:1001300011030008000000000000000000000000A3
:100140000000000000000000000000001103000893
:10015000110300081103000811030008110300082F
:100160001103000811030008000000000000000057
:10017000000000000000000000000000000000007F
:10018000000000000000000000000000000000006F
:04019000110300084F
:1001940010B5054C237833B9044B13B10448AFF3BD
:1001A40000800123237010BD000000200000000027
:1001B4005C03000808B5034B1BB103490348AFF3C4
:1001C400008008BD00000000040000205C0300085B
:1001D40080B582B000AF00F011F86B2000F056F843
:1001E40000237B6002E07B6801337B607B68024A0A
:1001F4009342F8DDF1E700BF3F420F0080B400AF47
:100204001F4B1B6B1E4A43F0010313631D4B1B68FA
:100214001C4A23F0100313601A4B1B68194A43F05D
:1002240020031360174B1B6A164A23F400631362FE
:10023400144B1B6A134A43F480631362114B1B6A09
:10024400104A43F4007313620E4B1B6A0D4A43F4C5
:10025400807313620A4B1B6C094A43F40033136422
:10026400094B8B229A60084B0822DA60064B4FF444
:100274000052DA6000BFBD465DF8047B704700BFE2
:1002840000380240000002400044004080B483B0C3
:1002940000AF786000BF084B1B6803F08003002B9D
:1002A400F9D07B68044ADBB2536000BF0C37BD460B
:1002B4005DF8047B704700BF004400400D4885464C
:1002C400AFF300800C480D490D4A002302E0D458D6
:1002D400C4500433C4188C42F9D30A4A0A4C00238C
:1002E40001E013600432A242FBD300F011F8FFF7DF
:1002F4006FFFFEE7008001200000002000000020C6
:100304007C030008000000201C000020FEE7000021
:1003140070B50D4D0D4C641BA4100026A64209D1E6
:100324000B4D0C4C00F018F8641BA4100026A642D8
:1003340005D170BD55F8043B98470136EEE755F8F2
:10034400043B98470136F2E774030008740300087D
:100354007403000878030008F8B500BFF8BC08BCB3
:100364009E467047F8B500BFF8BC08BC9E4670476F
:04037400B9010008C3
:0403780095010008E3
:04000005080002C12C
:00000001FF
