:020000040800F2
:1000000000800120E50400083505000835050008DA
:10001000350500083505000835050008000000001A
:10002000000000000000000000000000350500088E
:1000300035050008000000003505000835050008FA
:1000400000000000350500083505000835050008EA
:100050003505000835050008350500083505000898
:100060003505000835050008350500083505000888
:100070003505000835050008350500083505000878
:1000800035050008350500083505000800000000AA
:10009000000000000000000000000000350500081E
:1000A0003505000835050008350500083505000848
:1000B0003505000835050008350500083505000838
:1000C0003505000835050008350500083505000828
:1000D000350500083505000835050008000000005A
:1000E000350500083505000835050008000000004A
:1000F00000000000000000000000000035050008BE
:100100000000000035050008350500083505000829
:1001100000000000000000000000000000000000DF
:1001200035050008350500083505000835050008C7
:10013000350500080000000000000000000000007D
:10014000000000000000000000000000350500086D
:100150003505000835050008350500083505000897
:10016000350500083505000800000000000000000B
:10017000000000000000000000000000000000007F
:10018000000000000000000000000000000000006F
:040190003505000829
:1001A00010B5054C237833B9044B13B10448AFF3B1
:1001B00000800123237010BD5C00002000000000BF
:1001C0009813000808B5034B1BB103490348AFF36C
:1001D000008008BD000000006000002098130008A7
:1001E00001F0FF01102A2BDB10F0070F08D010F8E8
:1001F000013B013A8B422DD010F0070F42B3F6D1EC
:10020000F0B441EA012141EA014122F007047FF004
:1002100000070023F0E80256083C85EA010586EA5B
:10022000010685FA47F5A3FA87F586FA47F6A5FA97
:1002300087F68EB9EED1F0BC01F0FF0102F00702A3
:1002400032B110F8013B013A83EA010313B1F8D14E
:100250000020704701387047002D06BF354603382F
:10026000073815F0010F07D1013015F4807F02BF68
:10027000013015F4C03F0130F0BC0138704700BFB9
:1002800080B582B000AF00F0C1F800237B6010E0C1
:1002900079680A4800F012FA00233B6002E03B68EC
:1002A00001333B603B68064A9342F8DD7B680133CB
:1002B0007B607B68642BEBDDE7E700BFB0130008D1
:1002C0009F86010080B586B000AFF860B9607A60A3
:1002D00000237B610AE0AFF300800146BB685A1C33
:1002E000BA60CAB21A707B6901337B617A697B6834
:1002F0009A42F0DB7B6818461837BD4680BD80B552
:1003000086B000AFF860B9607A6000237B6109E0D5
:10031000BB685A1CBA601B78184600F0D7F87B6996
:1003200001337B617A697B689A42F1DB7B6818460E
:100330001837BD4680BD80B483B000AF78604FF001
:10034000FF3318460C37BD465DF8047B704780B418
:1003500083B000AF786039603B684FF400525A6058
:10036000002318460C37BD465DF8047B704780B407
:1003700083B000AF7860012318460C37BD465DF8A6
:10038000047B704780B485B000AFF860B9607A60D4
:10039000002318461437BD465DF8047B7047000003
:1003A00080B586B000AF7860144A154BD31A7B61D4
:1003B0007B693B61134B1B68002B02D1114B124A26
:1003C0001A60104B1A687B6813443A699A4207D244
:1003D00000F018FA03460C221A604FF0FF3309E0D0
:1003E000084B1B68FB60074B1A687B681344054A7F
:1003F0001360FB6818461837BD4680BD0080012099
:100400000004000078000020C801002080B400AF84
:100410001F4B1B6B1E4A43F0010313631D4B1B68EC
:100420001C4A23F0100313601A4B1B68194A43F04F
:1004300020031360174B1B6A164A23F400631362F0
:10044000144B1B6A134A43F480631362114B1B6AFB
:10045000104A43F4007313620E4B1B6A0D4A43F4B7
:10046000807313620A4B1B6C094A43F40033136414
:10047000094B8B229A60084B0822DA60064B4FF436
:100480000052DA6000BFBD465DF8047B704700BFD4
:1004900000380240000002400044004080B483B0B5
:1004A00000AF786000BF084B1B6803F08003002B8F
:1004B000F9D07B68044ADBB2536000BF0C37BD46FD
:1004C0005DF8047B704700BF0044004080B582B0F7
:1004D00000AF78607868FFF7E1FF7B68184608375F
:1004E000BD4680BD0D488546AFF300800C480D49E0
:1004F0000D4A002302E0D458C4500433C4188C427F
:10050000F9D30A4A0A4C002301E013600432A242E4
:10051000FBD300F07DF9FFF7B3FEFEE7008001207A
:10052000000000205C000020FC1300085C0000209C
:10053000C8010020FEE70000002310B50446C0E912
:100540000033C0E90433836081814366C2818361E3
:10055000194608225C3000F006F90D4B63620D4B22
:10056000A3620D4BE3620D4B23630D4B24629C424F
:1005700006D003F16802944202D0D0339C4205D1E8
:1005800004F15800BDE8104000F066B910BD00BF8E
:10059000E1060008030700083B0700085F070008A2
:1005A0007C000020024A0349034800F069B800BFFC
:1005B00000000020F91000081000002041680C4BDA
:1005C000994210B5044601D000F096FDA168094B90
:1005D000994202D0204600F08FFDE168064B994217
:1005E00004D02046BDE8104000F086BD10BD00BF1D
:1005F0007C000020E40000204C01002010B50B4BD3
:100600000B4C0C4A1A60204600220421FFF794FF8D
:1006100004F1680001220921FFF78EFF04F1D000E8
:100620000222BDE810401221FFF786BFB40100206E
:100630007C000020A5050008014800F00EB900BFAD
:10064000BD010020014800F009B900BFBD01002034
:1006500010B50446FFF7F0FF236A1BB1BDE8104058
:10066000FFF7F0BF044B2362044B1B68002BF5D14E
:10067000FFF7C4FFF2E700BFBD050008B40100208A
:100680002DE9F8430746884614460026D4E901952B
:10069000B9F1010905D52468002CF7D13046BDE831
:1006A000F883AB89012B07D9B5F90E30013303D09C
:1006B00029463846C04706436835E9E70FB407B511
:1006C000064904AB086853F8042B8168019300F0D5
:1006D000E9F903B05DF804EB04B070470C000020AA
:1006E00010B50C46B1F90E1000F068F80028ABBF49
:1006F000636DA3891B1823F48053ACBF6365A3818A
:1007000010BD2DE9F0411F468B89DB0505460C46DF
:10071000164605D5B1F90E100223002200F03CF870
:10072000A389B4F90E1023F48053A38132463B46CB
:100730002846BDE8F04100F053B810B50C46B1F9B9
:100740000E1000F029F8431CA38915BF606523F43F
:10075000805343F48053A38118BFA38110BDB1F926
:100760000E1000F009B802440346934200D17047CE
:1007700003F8011BF9E7000038B5064D00230446D5
:1007800008462B60FFF7D7FD431C02D12B6803B14D
:10079000236038BDB801002038B5074D044608462F
:1007A000114600222A601A46FFF7ECFD431C02D1D5
:1007B0002B6803B1236038BDB801002038B5074D60
:1007C00004460846114600222A601A46FFF77AFDC1
:1007D000431C02D12B6803B1236038BDB80100204F
:1007E00038B5074D04460846114600222A601A46CD
:1007F000FFF785FD431C02D12B6803B1236038BD90
:10080000B8010020014B1868704700BF0C000020A1
:1008100070B50D4D0D4C641BA4100026A64209D1E5
:100820000B4D0C4C00F0B8FD641BA4100026A64232
:1008300005D170BD55F8043B98470136EEE755F8F1
:10084000043B98470136F2E7F4130008F41300085C
:10085000F4130008F8130008704770477047000051
:1008600038B50546002941D051F8043C0C1F002B37
:10087000B8BFE41800F0E0F81D4A136833B96360AC
:1008800014602846BDE8384000F0DCB8A34208D91F
:10089000206821188B4201BF19685B680918216024
:1008A000EDE71A465B680BB1A342FAD911685018FC
:1008B000A0420BD120680144501883421160E0D15E
:1008C00018685B68536008441060DAE702D90C23AB
:1008D0002B60D6E7206821188B4204BF19685B683B
:1008E000636004BF091821605460CAE738BD00BFC7
:1008F000C401002070B50F4E0C463168054611B991
:1009000000F0B6FC30602146284600F0B1FC431CE4
:1009100003D14FF0FF34204670BDC41C24F0030403
:10092000A042F8D0211A284600F0A2FC0130F2D1F2
:10093000EFE700BFC00100202DE9F843CD1C25F0F2
:10094000030508350C2D38BF0C25002D064601DBAC
:10095000A94204D90C2333600020BDE8F883DFF8F6
:10096000D48000F069F8D8F800301C4644BB294612
:100970003046FFF7BFFF431C044658D1D8F800406B
:100980002746002F43D1002C4BD0236839463046F0
:1009900004EB030900F06CFC814542D121686D1A1B
:1009A00029463046FFF7A6FF01303AD023682B4492
:1009B0002360D8F800305A6862BBC8F800700FE0B6
:1009C0002268521B20D40B2A17D96119A342256033
:1009D00018BF5960636808BFC8F8001062514B60C7
:1009E000304600F02FF804F10B00231D20F0070023
:1009F000C21A1CBF1B1AA350AFE76268A3420CBF08
:100A0000C8F800205A60EBE723466468AEE73C462E
:100A10007F68B6E71A465B68A342FBD100235360A8
:100A2000DEE70C233360304600F00CF894E70560F5
:100A3000D6E700BFC40100200148FFF70EBF00BF8A
:100A4000BC0100200148FFF709BF00BFBC01002026
:100A50009368013B002B10B4936008DA9469A342B9
:100A600001DB0A2903D15DF8044B00F06DBB13686C
:100A7000581C1060197008465DF8044B7047F8B5B3
:100A800006460F461446D518AC4201D1002007E0B7
:100A900014F8011B3A463046FFF7DAFF431CF3D146
:100AA000F8BD00002DE9F04F0D469DB01446984664
:100AB000064618B1036A0BB9FFF7CAFD6B6ED9077A
:100AC00005D4AB899A0502D4A86DFFF7C6FEAB89A1
:100AD0001B0701D52B699BB92946304600F072FBF4
:100AE00070B16B6EDC0704D54FF0FF301DB0BDE870
:100AF000F08FAB899805F7D4A86DFFF7AFFEF3E749
:100B00000023099320238DF82930CDF80C80302361
:100B1000DFF8AC818DF82A304FF0010923469A4660
:100B200013F8012B0AB1252AF9D1BAEB040B0BD02B
:100B30005B46224629463046FFF7A1FF013000F010
:100B4000A780099A5A4409929AF80030002B00F0C5
:100B50009F8000234FF0FF32CDE905230AF1010AFF
:100B6000049307938DF853301A935446052214F8D2
:100B7000011B5348FFF734FB049AD8B9D10644BF90
:100B800020238DF85330130744BF2B238DF85330A7
:100B90009AF800302A2B15D0079A544600204FF0BF
:100BA0000A0C214611F8013B303B092B4BD9B0B15F
:100BB000079214E0A0EB080309FA03F3134304932C
:100BC000A246D2E7039B191D1B680391002BBBBFF4
:100BD0005B4242F0020207930793B8BF0492237866
:100BE0002E2B0AD163782A2B32D1039B1A1D1B6846
:100BF000039243EAE37302340593DFF8D4A021782B
:100C000003225046FFF7ECFA38B1049BA0EB0A0030
:100C10004022824013430134049314F8011B2948F5
:100C20008DF828100622FFF7DBFA00283FD0264B6C
:100C30001BBB039B073323F0070308330393099B74
:100C40003B4409936AE70CFB02320C460120A8E7FB
:100C500000230134059319464FF00A0C204610F882
:100C6000012B303A092A03D9002BC6D00591C4E7DD
:100C70000CFB012104460123F0E703AB00932A4655
:100C8000124B04A93046AFF300800746781CD6D13A
:100C90006B6ED90705D4AB899A0502D4A86DFFF70E
:100CA000DDFDAB895B063FF51FAF09981EE703AB7F
:100CB00000932A46054B04A9304600F079F8E4E792
:100CC000B6130008C0130008000000007F0A0008E7
:100CD000BC1300082DE9F047164698468A680B6950
:100CE000DDF820909342B8BF1346336091F843205B
:100CF00007460C460AB1013333602368990642BFA8
:100D0000336802333360256815F0060506D104F117
:100D1000190AE36832689B1AAB4226DC94F8433028
:100D20002268003B18BF012392062BD404F1430232
:100D300041463846C84701301ED02368226903F077
:100D40000603042B02BFE5683368ED1AA3680CBFE5
:100D500025EAE57500259342C4BF9B1AED180026CD
:100D60001A34B5421AD1002008E001235246414608
:100D70003846C847013003D14FF0FF30BDE8F08757
:100D80000135C6E7E1185A1C302081F8430022449F
:100D900094F8451082F843100233C7E70123224636
:100DA00041463846C8470130E6D00136D9E7000051
:100DB0002DE9FF470F7E0C9E782F914680460C460A
:100DC0009A4601F1430207D8622F0AD8002F00F09B
:100DD000D280582F00F0B98004F1420684F84270A6
:100DE0003AE0A7F16303152BF6D801A151F823F0DF
:100DF000490E00085D0E0008D90D0008D90D000845
:100E0000D90D0008D90D00085D0E0008D90D0008A5
:100E1000D90D0008D90D0008D90D00085D0F000894
:100E2000870E0008170F0008D90D0008D90D00081B
:100E30007F0F0008D90D0008870E0008D90D0008A3
:100E4000D90D00081F0F000833681A1D1B68326097
:100E500004F1420684F8423001239DE033682068A3
:100E6000191D3160060601D51D6803E04506FBD556
:100E7000B3F90050002D03DA2D236D4284F843307E
:100E800059480A2311E021683368080653F8045BC7
:100E900002D4490648BFADB26F2F5348336014BF28
:100EA0000A230823002184F843106668A660002EF8
:100EB000A2BF216821F0040121600DB9002E4BD0A2
:100EC0001646B5FBF3F103FB1157C75D06F8017D2C
:100ED0002F46BB420D46F4D9082B0BD12368DF0700
:100EE00008D5236961689942DEBF302306F8013CCA
:100EF00006F1FF36921B2261CDF800A04B4603AAF3
:100F000021464046FFF7E6FE01304AD14FF0FF3060
:100F100004B0BDE8F087236843F020032360334822
:100F2000782784F84570236831681F0651F8045B00
:100F300002D45F0648BFADB23160D90744BF43F069
:100F4000200323601DB11023ACE72748E9E723689D
:100F500023F020032360F6E71646BDE733682568D3
:100F60006169181D30602E061B6801D5196002E00A
:100F70006806FBD51980002323611646BCE7336859
:100F80001A1D32601E68626800213046FFF728F99A
:100F900008B1801B606063682361002384F84330DC
:100FA000AAE72369324649464046D0470130ADD0D2
:100FB00023689B0713D4E068039B9842B8BF184688
:100FC000A6E70123324649464046D04701309DD02E
:100FD0000135E36803995B1AAB42F2DCEBE70025CD
:100FE00004F11906F5E700BFC7130008D81300087D
:100FF000B1F90C202DE9F041160705460C4654D4F2
:101000004B68002B02DC0B6C002B48DDE66A002EDF
:1010100045D0002312F480522F68216A2B6030D013
:10102000626DA389590705D56368D21A636B0BB14A
:10103000236CD21A0023E66A216A2846B047431C73
:10104000A38906D129681D292BD82A4A0A41D60727
:1010500027D400226260D9042269226004D5421C90
:1010600001D12B6803B96065616B2F60B9B104F1E0
:101070004403994202D02846FFF7F2FB0023636342
:101080000DE001232846B0470246501CC9D12B6809
:10109000002BC6D01D2B01D0162B1ED12F60002097
:1010A00022E043F040031BB21BE00F69002FF6D093
:1010B00093070E6808BF4B690F6018BF0023A6EBAB
:1010C00007088B60B8F1000FE9DD216AA66A434684
:1010D0003A462846B047002808DCB4F90C3043F003
:1010E0004003A3814FF0FF30BDE8F0810744A8EB37
:1010F0000008E7E7FEFFBFDF38B50B6905460C4681
:1011000013B90025284638BD18B1036A0BB9FFF79B
:101110009FFAB4F90C30002BF3D0626ED00704D4E0
:10112000990502D4A06DFFF798FB28462146FFF7EA
:101130005FFF636EDA070546E4D4A3899B05E1D41B
:10114000A06DFFF78BFBDDE7F8B50E4614460546AC
:1011500018B1036A0BB9FFF77BFAA369A360A389EF
:101160001A0701D5236943B92146284600F02AF819
:1011700018B14FF0FF373846F8BD23682269981A36
:101180006369F6B28342374605DC21462846FFF7FD
:10119000B3FF0028EDD1A368013BA36023685A1C6C
:1011A00022601E706269431C9A4204D0A389DB0747
:1011B000E1D50A2EDFD121462846FFF79DFF002802
:1011C000D9D0D6E738B5294B054618680C4618B172
:1011D000036A0BB9FFF73CFAB4F90C30190722D4B3
:1011E000DA0607D409222A6043F04003A3814FF0B6
:1011F000FF3033E0580712D5616B41B104F144036D
:10120000994202D02846FFF72BFB00236363A38992
:1012100023F02403A3810023636023692360A3894F
:1012200043F00803A38123694BB9A38903F4207316
:10123000B3F5007F03D02146284600F04FF8B4F9FB
:101240000C3013F001020AD00022A26062695242FF
:10125000A261226942B913F08000C5D138BD990757
:1012600058BF6269A260F4E70020F7E70C00002095
:1012700038B5064D0023044608462B60FFF790F86A
:10128000431C02D12B6803B1236038BDB801002094
:1012900070B50C46B1F90E10002996B015461E46E1
:1012A0000DDAA38913F0800F4FF0000114BF402323
:1012B0004FF48063002031602B6016B070BD6A4629
:1012C00000F048F80028ECDB019901F47041A1F529
:1012D0000053594259414FF48063EBE78B89F7B5CE
:1012E0009D0706460C4607D504F14703236023619A
:1012F0000123636103B0F0BD01AB6A46FFF7C8FF8D
:10130000009F054639463046FFF716FB48B9B4F949
:101310000C309A05EED423F0030343F00203A381BB
:10132000E2E7A389206043F08003A381019BC4E925
:1013300004075BB1B4F90E10304600F01DF828B177
:10134000A38923F0030343F00103A381A3891D4371
:10135000A581CFE738B5074D00230446084611465E
:101360002B60FEF7F4FF431C02D12B6803B123600E
:1013700038BD00BFB801002038B5064D0023044633
:1013800008462B60FEF7F3FF431C02D12B6803B124
:10139000236038BDB8010020F8B500BFF8BC08BC18
:1013A0009E467047F8B500BFF8BC08BC9E46704723
:1013B0002564200A0D00232D302B2000686C4C0082
:1013C0006566674546470030313233343536373845
:1013D00039414243444546003031323334353637A3
:0C13E0003839616263646566000000003B
:0813EC00F4EDFF7F0100000099
:0413F400C501000827
:0413F800A101000847
:1013FC0000000000030000007C0000201000002012
:10140C00000000007C000020E40000204C010020C3
:10141C0000000000000000000000000000000000C0
:10142C0000000000000000000000000000000000B0
:10143C0000000000000000000000000000000000A0
:0C144C0000000000000000000000000094
:04000005080004E506
:00000001FF
