:020000040800F2
:1000000000800120350300088503000885030008EF
:100010008503000885030008850300080000000030
:100020000000000000000000000000008503000840
:100030008503000800000000850300088503000810
:100040000000000085030008850300088503000800
:100050008503000885030008850300088503000860
:100060008503000885030008850300088503000850
:100070008503000885030008850300088503000840
:1000800085030008850300088503000800000000C0
:1000900000000000000000000000000085030008D0
:1000A0008503000885030008850300088503000810
:1000B0008503000885030008850300088503000800
:1000C00085030008850300088503000885030008F0
:1000D0008503000885030008850300080000000070
:1000E0008503000885030008850300080000000060
:1000F0000000000000000000000000008503000870
:10010000000000008503000885030008850300083F
:1001100000000000000000000000000000000000DF
:10012000850300088503000885030008850300088F
:10013000850300080000000000000000000000002F
:10014000000000000000000000000000850300081F
:10015000850300088503000885030008850300085F
:10016000850300088503000800000000000000006F
:10017000000000000000000000000000000000007F
:10018000000000000000000000000000000000006F
:0401900085030008DB
:1001940010B5054C237833B9044B13B10448AFF3BD
:1001A40000800123237010BD000000200000000027
:1001B400D003000808B5034B1BB103490348AFF350
:1001C400008008BD0000000004000020D0030008E7
:1001D40080B582B000AF00F013F800F097F83860F3
:1001E400386800F07BF800237B6002E07B68013311
:1001F4007B607B68014A9342F8DDEEE79F8601004D
:1002040080B400AF324B1B6B314A43F001031363DC
:10021400304B1B682F4A23F0100313602D4B1B68CF
:100224002C4A43F0200313602A4B1B68294A23F00D
:1002340040031360274B1B68264A43F08003136076
:10024400244B1B6A234A23F400631362214B1B6A69
:10025400204A43F4806313621E4B1B6A1D4A43F415
:10026400007313621B4B1B6A1A4A43F480731362B4
:10027400184B1B6A174A23F400431362154B1B6A7D
:10028400144A43F480431362124B1B6A114A43F429
:10029400005313620F4B1B6A0E4A43F480531362DC
:1002A4000B4B1B6C0A4A43F4003313640A4B8B2236
:1002B4009A60094B0822DA60074B0422DA60064B85
:1002C4004FF40052DA6000BFBD465DF8047B70470E
:1002D40000380240000002400044004080B483B073
:1002E40000AF786000BF084B1B6803F08003002B4D
:1002F400F9D07B68044ADBB2536000BF0C37BD46BB
:100304005DF8047B704700BF0044004080B400AF38
:1003140000BF064B1B6803F02003002BF9D0034BEE
:100324005B681846BD465DF8047B70470044004096
:100334000D488546AFF300800C480D490D4A002353
:1003440002E0D458C4500433C4188C42F9D30A4A86
:100354000A4C002301E013600432A242FBD300F0F4
:1003640011F8FFF735FFFEE70080012000000020B0
:1003740000000020F0030008000000201C00002002
:10038400FEE7000070B50D4D0D4C641BA410002653
:10039400A64209D10B4D0C4C00F018F8641BA410B4
:1003A4000026A64205D170BD55F8043B9847013696
:1003B400EEE755F8043B98470136F2E7E8030008F6
:1003C400E8030008E8030008EC030008F8B500BFE0
:1003D400F8BC08BC9E467047F8B500BFF8BC08BC22
:0403E4009E4670477A
:0403E800B90100084F
:0403EC00950100086F
:0400000508000335B7
:00000001FF
